:100000000C94F9000C9463050C943C050C942101AC
:100010000C9421010C9421010C9421010C942101D8
:100020000C9421010C9421010C9421010C942101C8
:100030000C9421010C9421010C9421010C942101B8
:100040000C94F2040C9421010C94820A0C945C0A26
:100050000C9421010C9421010C9421010C94210198
:100060000C9421010C942101520158015E0164019C
:100070006A0170017601A702AE02B502BC02C3029A
:10008000DA02CA02DA02D1024D6F76696E67207415
:100090006F204261636B20506F736974696F6E20CB
:1000A0003A20004D6F76696E6720746F2046726F3C
:1000B0006E7420506F736974696F6E203A20004D22
:1000C0006F76696E6720746F2053746174696F6E08
:1000D000203A200000000000240027002A00000031
:1000E0000000250028002B00040404040404040478
:1000F00002020202020203030303030301020408D3
:100100001020408001020408102001020408102081
:1001100000000008000201000003040700000000C6
:1001200000000000506572666F726D696E67203264
:1001300020636F6D706C657465207475726E7320CA
:10014000746F2066696E6420686F6D652E00466965
:100150006E64696E6720686F6D652E2E2E2E0045C9
:1001600078616D706C65205475726E7461626C6537
:100170002050726F6772616D202D207777772E6423
:100180006363696E746572666163652E636F6D008B
:1001900053657474696E672075702044434320442E
:1001A00065636F726465722E2E2E004469736162FE
:1001B0006C652053746570706572204F757470752E
:1001C000747300466F756E6420486F6D65202D2036
:1001D0005373657474696E672043757272656E74CB
:1001E00020506F736974696F6E20746F2030000047
:1001F000171411241FBECFEFD8E0DEBFCDBF11E032
:10020000A0E0B1E0E0EAFFE202C005900D92A63660
:10021000B107D9F722E0A6E6B1E001C01D92AE3DDC
:10022000B207E1F710E0C9EFD0E004C02197FE016A
:100230000E94A217C83FD107C9F70E94ED0D0C9488
:10024000CE170C940000FC01918D228D892F90E037
:10025000805C9F4F821B91098F739927089580E0DE
:1002600090E0892B29F00E94E30981110C94000091
:1002700008950895CF93DF93477055276627772712
:10028000FA013197EC01A881B981E730F10520F43A
:10029000EC5CFF4F0C94A2171496ED91FC9115970E
:1002A00061E029C01496ED91FC91159765E023C09B
:1002B0001496ED91FC91159764E01DC01496ED9194
:1002C000FC91159766E017C01496ED91FC91159777
:1002D00062E011C01496ED91FC9115976AE00BC095
:1002E0001496ED91FC91159768E005C01496ED9178
:1002F000FC91159769E0DF91CF910994CF93DF933B
:10030000EC01CB01BA0126E030E040E050E00E9471
:100310008317623071058105910559F18CF46115DF
:10032000710581059105F1F0613071058105910537
:10033000C1F5E881F9810480F581E02D65E02DC0EB
:10034000643071058105910511F1D4F065307105B6
:100350008105910531F5E881F9810480F581E02D71
:1003600066E01BC0E881F9810480F581E02D64E03E
:1003700014C0E881F9810480F581E02D61E00DC0B1
:10038000E881F9810480F581E02D63E006C0E88111
:10039000F9810480F581E02D62E0CE01DF91CF91FB
:1003A0000994DF91CF9108954370552766277727E9
:1003B000DC01ED91FC910480F581E02D4230510586
:1003C0006105710571F0433051056105710559F002
:1003D000413051056105710511F065E005C066E029
:1003E00003C06AE001C069E00994CF93DF93EC0198
:1003F000CB01BA0123E030E040E050E00E948317D7
:10040000613071058105910581F0623071058105CA
:10041000910591F0672B682B692BC1F4E881F98174
:100420000480F581E02D64E00DC0E881F98104804D
:10043000F581E02D61E006C0E881F9810480F58155
:10044000E02D62E0CE01DF91CF910994DF91CF9151
:1004500008954370552766277727DC01ED91FC91BD
:100460000480F581E02D423051056105710571F080
:10047000433051056105710559F041305105610561
:10048000710511F062E005C063E003C061E001C0E6
:1004900060E00994CF93DF93EC01E881F981048057
:1004A000F581E02D8A81811102C060E001C062E027
:1004B000CE010995E881F9810480F581E02D8A81DA
:1004C000811102C061E001C063E0CE0109958CA5F5
:1004D0009DA58230910538F0880F991F880F991FCC
:1004E00005970197F1F7E881F9810480F581E02D06
:1004F0008A81811102C060E001C062E0CE01DF911B
:10050000CF910994CF93DF93EC0120E030E0A90173
:100510006C897D898E899F890E94801618161CF42B
:10052000E8A9F9A902C0EAA9FBA9DF91CF91099432
:100530000F931F93DC011396EC910E2F10E00930FE
:100540001105C0F5F801E55CFF4F0C94A217DC0122
:10055000ED91FC910084F185E02D29C0DC01ED9145
:10056000FC910284F385E02D22C0DC01ED91FC9129
:100570000484F585E02D1BC0DC01ED91FC9106841F
:10058000F785E02D14C0DC01ED91FC910088F18924
:10059000E02D0DC0DC01ED91FC910288F389E02D86
:1005A00006C0DC01ED91FC910488F589E02D1F91D6
:1005B0000F9109941F910F910895E99889E391E0B3
:1005C000909306018093050181E08093F2010895E4
:1005D000FC01848DDF01A80FB11DA35ABF4F2C91E0
:1005E000848D90E001968F739927848FA689B789AF
:1005F0002C93A089B1898C91837080648C93938DA6
:10060000848D981306C00288F389E02D80818F7D48
:100610008083089590E0FC01E05FFE4F2491FC018F
:10062000E450FF4F3491FC01E851FF4FE491EE2379
:1006300009F43CC0222339F1233091F038F4213001
:10064000A9F0223001F584B58F7D12C0273091F0DA
:100650002830A1F02430B9F4809180008F7D03C050
:10066000809180008F77809380000DC084B58F7754
:1006700084BD09C08091B0008F7703C08091B00025
:100680008F7D8093B000F0E0EE0FFF1FE252FF4F2E
:10069000A591B4919FB7F894611104C08C913095E5
:1006A000382302C0EC913E2B3C939FBF0895CF921C
:1006B000DF92EF92FF920F931F93CF93DF93EC01A2
:1006C0009B81943041F0983031F0933031F0963086
:1006D00021F012E003C014E001C013E02496E12CE5
:1006E000F12CC62ED12C01E0C6010E2C02C095952E
:1006F00087950A94E2F76C8180FD602789910E94BA
:100700000A038FEFE81AF80AE11670F3DF91CF9130
:100710001F910F91FF90EF90DF90CF900895CF93AE
:10072000DF9390E0FC01E450FF4F2491FC01E8517D
:10073000FF4F8491882361F190E0880F991FFC019D
:10074000EC52FF4FC591D491FC01E252FF4FA591AD
:10075000B491611109C09FB7F894888120958223D4
:100760008883EC912E230BC0623061F49FB7F8941C
:100770008881322F309583238883EC912E2B2C9304
:100780009FBF06C08FB7F894E8812E2B28838FBFB8
:10079000DF91CF910895CF93DF93FC012381222332
:1007A00059F1EC0161E084810E948F0361E08D8149
:1007B0000E948F038B81843011F0883039F461E01E
:1007C0008E810E948F0361E08F8106C0833011F01B
:1007D000863021F461E08E810E948F038FA58F3FC8
:1007E00059F061E00E948F036EA581E068278FA514
:1007F000DF91CF910C940A03DF91CF910895EF928E
:10080000FF920F931F93CF93DF938C01F62EE42E6C
:1008100083E391E00E943F0DB80180E090E04AE060
:100820000E947A0D6CE285EF91E00E94ED096F2D38
:1008300070E080E090E04AE00E947A0D6CE285EF83
:1008400091E00E94ED096E2D70E080E090E040E1C3
:100850000E947A0D8FE491E00E943F0D809101018A
:100860009091020120910001E0E7F1E0C0E0D0E0CA
:10087000408151810417150709F064C00817190752
:1008800019F4F21609F45EC0EE2009F45BC010936F
:10089000020100930101F09200018FEB90E00E94B1
:1008A000510DCE010E94BB0D8AE992E00E94CB035C
:1008B000FF20A1F083EA90E00E94510D26E02C9FDA
:1008C000C0012D9F900D1124EC01C059DE4F8A818B
:1008D0009B810E94BB0D8A819B8113C088E890E0B8
:1008E0000E94510D26E02C9FC0012D9F900D1124D8
:1008F000EC01C059DE4F8C819D810E94BB0D8C8123
:100900009D81092E000CAA0BBB0B4091AA025091AD
:10091000AB026091AC027091AD0284179507A607F7
:10092000B707B1F08093AA029093AB02A093AC02F8
:10093000B093AD02DF91CF911F910F91FF90EF9097
:100940000C94E00A21963696CD30D10509F090CF6F
:10095000DF91CF911F910F91FF90EF900895CF936A
:10096000DF93FC0123812223A9F0EC010190F081A7
:10097000E02D0480F581E02D60E009958FA58F3F83
:1009800049F061E00E948F036EA58FA5DF91CF91A2
:100990000C940A03DF91CF9108953FB7F8948091AA
:1009A0006C0190916D01A0916E01B0916F0126B51F
:1009B000A89B05C02F3F19F00196A11DB11D3FBF97
:1009C000BA2FA92F982F8827820F911DA11DB11D25
:1009D000BC01CD0142E0660F771F881F991F4A9521
:1009E000D1F708951F920F920FB60F9211242F93F3
:1009F0003F938F939F93AF93BF938091C301909147
:100A0000C401A091C501B091C60130916B0123E0F2
:100A1000230F2D3720F40196A11DB11D05C026E836
:100A2000230F0296A11DB11D20936B018093C3017A
:100A30009093C401A093C501B093C60180916C014D
:100A400090916D01A0916E01B0916F010196A11D71
:100A5000B11D80936C0190936D01A0936E01B093D2
:100A60006F01BF91AF919F918F913F912F910F9007
:100A70000FBE0F901F9018951F920F920FB60F92F6
:100A800011242F933F934F935F936F937F938F9393
:100A90009F93AF93BF93EF93FF93E0910501F09184
:100AA00006010995FF91EF91BF91AF919F918F91B1
:100AB0007F916F915F914F913F912F910F900FBE5A
:100AC0000F901F9018951F920F920FB60F9211243E
:100AD0002F933F934F935F936F937F938F939F9346
:100AE000AF93BF93EF93FF93E0910301F091040163
:100AF0000995FF91EF91BF91AF919F918F917F9158
:100B00006F915F914F913F912F910F900FBE0F907A
:100B10001F9018958230E8F4E82FF0E0EE0FFF1FE9
:100B2000ED5FFE4F71836083813041F080916900F9
:100B30008C7F482B40936900E89A08958091690062
:100B4000837F440F551F440F551F482B4093690066
:100B5000E99A089580916A0181114FC10E94CD04E4
:100B60002091680130916901FB01E21BF30B209198
:100B7000BE013091BF01E217F30708F43EC1209196
:100B8000C0013091C101709369016093680161E017
:100B900060936A0178944091C7015091C801413037
:100BA000510599F148F04230510509F4B8C043307D
:100BB000510509F4EDC01FC1E217F30708F0D4C0D6
:100BC0008091CA018F5F8093CA018B3008F413C1F2
:100BD00081E090E09093C8018093C70141E050E02C
:100BE0006AEA75E08091ED010E948A051092670122
:100BF00082E590E09093C1018093C00183E290E090
:100C00009093BF018093BE01F6C0409167014130CF
:100C100081F028F0433069F14430C9F1ECC0E217AB
:100C2000F30728F460936701E0936601E4C084E071
:100C30001DC0E217F307C8F4109267019091CA0132
:100C40009F5F9093CA018E2FEE0F990B2091660142
:100C5000821B910927FD939597FF03C0919581957C
:100C6000910943970CF4C7C015C083E080936701D6
:100C7000C2C0E217F30770F08091C201833021F403
:100C800082E08093C20119C04093C20116C0E217EE
:100C9000F30798F41092C8011092C70182E990E01E
:100CA0009093C1018093C00182E590E09093BF01D1
:100CB0008093BE011092CA0128C082E090E0909318
:100CC000C8018093C70182E990E09093C1018093AD
:100CD000C00182E590E09093BF018093BE01109225
:100CE000CC011092CE011092CF011092D00110923F
:100CF000D1011092D2011092D3018091CA01809348
:100D0000CD011092CA011092CB014091C20150E076
:100D10006AEA75E08091ED010E948A056CC05091ED
:100D2000CA015F5F5093CA014091CB01440FE217A3
:100D3000F30708F441604093CB01583009F05BC0E1
:100D4000E091CC01E63099F41092C8011092C701ED
:100D500082E990E09093C1018093C00182E590E028
:100D60009093BF018093BE011092CA0144C083E0FA
:100D700090E09093C8018093C70181E08E0F80932B
:100D8000CC01F0E0E953FE4F8091CB01878333C063
:100D90004091CA014F5F4093CA01E217F307E0F4A4
:100DA0001092C8011092C70182E990E09093C101AE
:100DB0008093C00182E590E09093BF018093BE01D3
:100DC00088E0ECECF1E0A4EDB1E001900D928A95A1
:100DD000E1F76093C9010FC08091CC01863009F41E
:100DE000B3CF82E090E09093C8018093C701109246
:100DF000CA011092CB0110926A010895CF93C82FB7
:100E000080E090E0892B51F08091DE018C1731F069
:100E100081E0C11101C080E00E940000C093DE01AA
:100E2000CC2381F02FB7F8948091C3019091C40135
:100E3000A091C501B091C6012FBF482F392F2A2F8D
:100E40008B2F04C040E030E020E080E04093DF01E1
:100E50003093E0012093E1018093E20180E090E093
:100E6000892B59F08091DE01C81739F081E0C1115A
:100E700001C080E0CF910C940000CF9108950E94B2
:100E8000FE06ECEDF1E081E08783108688E0E5EE78
:100E9000F1E0DF011D928A95E9F708951F93CF9342
:100EA000DF938331910550F48131910590F48130C5
:100EB000910579F08930910591F40BC08D31910540
:100EC00071F42091DC012F73362F307C232B20937B
:100ED000DC012FEF3FEF3093F0012093EF0120E092
:100EE00030E0232B29F0DF91CF911F910C9400006B
:100EF000162FEC010E949E141817C1F0612FCE012D
:100F00000E94A61480E090E0892B21F0612FCE0191
:100F10000E94000080E090E0892B41F08091DC018C
:100F200084FD04C0612FCE010E940000CE01DF913C
:100F3000CF911F910C949E1420E030E0232B11F0F0
:100F40000C9400000C949E14CF932091EF013091EB
:100F5000F0012F3F8FEF380711F0C90148C08DE134
:100F600090E00E949C0787FF23C086FF0CC089E0A9
:100F700090E00E949C07C82F81E090E00E949C07AF
:100F80002C2F30E024C089E090E00E949C07C82FFD
:100F900081E090E00E949C07C77090E4C99F900197
:100FA00011248F73282B3093F0012093EF011BC085
:100FB00085FF10C081E190E00E949C07C82F82E16C
:100FC00090E00E949C072C2F30E0205C3109322FEA
:100FD0002227E8CF81E090E00E949C0790E0909368
:100FE000F0018093EF018091EF019091F001CF919A
:100FF00008951F93CF93DF93EC01162F80E090E0CC
:10100000892B91F0C830D10579F4662301F10E9453
:10101000000080E090E0892BA1F0612FCE01DF91EC
:10102000CF911F910C94000080E090E0892BA9F7EC
:1010300081E0C11594E0D90708F080E0111102C0E9
:101040000BC081E02797229738F480E005C080E04C
:1010500090E0892B11F781E0DF91CF911F910895E6
:10106000DF92EF92FF920F931F93CF93DF938B0149
:10107000E42E82FF29C083FF1BC061E0C8010E94EB
:10108000F907882309F455C06E2DC8010E944E0748
:10109000E8124FC080E090E0892B09F44AC0DF914C
:1010A000CF911F910F91FF90EF90DF900C94000073
:1010B00060E0C8010E94F9078823D9F1C8010E94A5
:1010C0009C078E1136C0E6CF842F8770C1E0D0E038
:1010D00001C0CC0F8A95EAF7842F8870D82ECB01F7
:1010E0000E949C07F82EE4FE15C061E0C8010E9432
:1010F000F9078823F1F0DD2011F0CF2904C08C2FEF
:101100008095C82FCF216C2FC8010E944E07C813AD
:1011100010C0C0CF60E0C8010E94F907882349F0E1
:10112000CF21DD2019F0C111B5CF03C0CC2309F4C4
:10113000B1CFDF91CF911F910F91FF90EF90DF9092
:101140000895CF92DF92EF92FF920F931F93CF9368
:10115000DF937C016B01C42F122FD42FD07E80919E
:10116000DC0187FF1CC0D03E09F0EFC08091DD019B
:10117000882309F4EAC090E00E949C07D82F809150
:10118000DD0190E001960E949C074D2F50E0582B06
:101190008FE3F8224E155F0509F0D7C019C080FF14
:1011A00009C00E94A407E816F90621F0E114F10431
:1011B00009F0CBC0D03621F1F0F0D03A09F48BC061
:1011C00008F4A2C0D03C09F4AAC0D03E09F0BDC0CA
:1011D0008C2F8370612F70E0782B6F5F7F4F402FD3
:1011E0008C2FDF91CF911F910F91FF90EF90DF90A7
:1011F000CF900C943008D032C1F1D03409F053C0F4
:1012000080E090E0892BF9F08C2F8F71813029F0EC
:1012100078F0803169F0813111F440E00AC04C2F40
:101220004F70440FC4FB882780F9482B425001C0FF
:1012300041E0C5FB222720F90DE110E030E0B601C6
:10124000C7010E94000080E090E0892B09F47DC076
:101250004C2FB601C701DF91CF911F910F91FF90E5
:10126000EF90DF90CF900C940000CF71CF3109F058
:101270006CC080E090E0892B09F467C0412F4F7764
:1012800021F0413019F440E001C041E0612F661FB8
:101290006627661F262F30E00FE710E0B601C70172
:1012A0000E94000052C0D11150C08C2F8E7009F0E6
:1012B0004CC080E090E0892B09F447C0C0FF45C0D6
:1012C00081E0DF91CF911F910F91FF90EF90DF9020
:1012D000CF900C94000080E090E0892BB1F12C2F8E
:1012E0002F70C4FF0EC042E050E0B601C701DF918D
:1012F000CF911F910F91FF90EF90DF90CF900C94C2
:10130000000043E050E0F1CFD038F9F480E090E005
:10131000892BD9F02C2F2F7141E050E0E6CFCF710F
:10132000CE3119F0CF3149F010C080E090E0892B28
:1013300061F0212F44E050E0D8CF80E090E0892B8D
:1013400021F0212F45E050E0D0CFDF91CF911F91C8
:101350000F91FF90EF90DF90CF900895089580E077
:1013600090E00895FC01538D448D252F30E0842FAB
:1013700090E0821B930B541710F0CF9608950197BD
:101380000895FC01918D828D981761F0828DDF01A7
:10139000A80FB11D5D968C91928D9F5F9F73928F68
:1013A00090E008958FEF9FEF0895FC01918D828D5D
:1013B000981731F0828DE80FF11D858D90E008952A
:1013C0008FEF9FEF089585EF91E00E94230121E0C8
:1013D000892B09F420E0822F0895EF92FF920F935A
:1013E0001F93CF93DF93EC0181E0888F9B8D8C8DD1
:1013F000981305C0E889F989808185FD26C0F62EFD
:101400000B8D10E00F5F1F4F0F731127E02E8C8D97
:10141000E8120CC00FB607FCFACFE889F989808181
:1014200085FFF5CFCE010E94E802F1CF8B8DFE0142
:10143000E80FF11DE35AFF4FF0829FB7F8940B8F2E
:10144000EA89FB89808180620AC09FB7F894EE899F
:10145000FF896083E889F989808183708064808353
:101460009FBF81E090E0DF91CF911F910F91FF909E
:10147000EF900895CF93DF93EC01888D8823C9F016
:10148000EA89FB89808185FD05C0A889B9898C918D
:1014900086FD0FC00FB607FCF5CF808185FFF2CF28
:1014A000A889B9898C9185FFEDCFCE010E94E80211
:1014B000E7CFDF91CF9108951F920F920FB60F9251
:1014C00011242F933F934F935F936F937F938F9349
:1014D0009F93AF93BF93EF93FF9385EF91E00E94AB
:1014E000E802FF91EF91BF91AF919F918F917F9112
:1014F0006F915F914F913F912F910F900FBE0F9081
:101500001F9018951F920F920FB60F9211242F93D0
:101510008F939F93EF93FF93E0910502F091060262
:101520008081E0910B02F0910C0282FD12C090814B
:1015300080910E028F5F8F7320910F02821751F0FE
:10154000E0910E02F0E0EB50FE4F958F80930E027B
:1015500001C08081FF91EF919F918F912F910F900A
:101560000FBE0F901F901895CF92DF92EF92FF92CF
:101570000F931F93CF93DF936C017A018B01C0E02F
:10158000D0E0CE15DF0581F0D8016D918D01D60137
:10159000ED91FC910190F081E02DC6010995892B18
:1015A00011F02196EECF7E01C701DF91CF911F91FF
:1015B0000F91FF90EF90DF90CF9008950E94BC179D
:1015C0004F925F926F927F928F929F92AF92BF9253
:1015D000CF92DF92EF92FF920F931F93CF93DF93FF
:1015E000C090AA02D090AB02E090AC02F090AD02A5
:1015F0008091A6029091A702A091A802B091A902A1
:10160000C81AD90AEA0AFB0A6091AE027091AF02C9
:101610008091B0029091B1029B01AC010E948516AD
:101620004B015C016091B6027091B7028091B802E3
:101630009091B9029B01AC010E94B5149B01AC01D1
:10164000C501B4010E9426150E949815C114D10449
:10165000E104F104F9F462307105810591050CF0A3
:1016600092C01092BE021092BF021092C00210925D
:10167000C1021092AE021092AF021092B00210920C
:10168000B1021092CE021092CF021092D0021092AC
:10169000D1022AC10091CE021091CF022091D00236
:1016A0003091D1021C141D041E041F040CF51016E9
:1016B00011061206130654F46C157D058E059F0560
:1016C00064F520919C0221115EC027C0011511050F
:1016D0002105310509F457C06C157D058E059F0560
:1016E0000CF051C080919C02882309F44CC03CC08E
:1016F000101611061206130614F50027112798017B
:101700000C191D092E093F096017710782079307FD
:1017100024F420919C022223B1F19B01AC01882783
:101720009927DC01821B930BA40BB50B8093CE028F
:101730009093CF02A093D002B093D10224C00115A0
:10174000110521053105F9F08824992454018C18DC
:101750009D08AE08BF08681579058A059B059CF4AD
:1017600080919C0281110FC03095209510950195B4
:101770001F4F2F4F3F4F0093CE021093CF02209365
:10178000D0023093D1028090CE029090CF02A090F0
:10179000D002B090D10281149104A104B104D1F41B
:1017A0008091D2029091D302A091D402B091D5023F
:1017B0008093D6029093D702A093D802B093D90217
:1017C00081E01C141D041E041F040CF080E08093B3
:1017D0009C024AC0C090D602D090D702E090D802B6
:1017E000F090D902A7019601C701B6010E94B51475
:1017F0002B013C01C501B4010E94D01520E030E06E
:1018000040E850E40E94851620E030E040E85FE3C5
:101810000E94B5149B01AC01C301B2010E942615C0
:101820009B01AC01C701B6010E94B414D62FC72F8B
:101830006C01E090DA02F090DB020091DC02109182
:10184000DD029701A8010E94801618161CF4ED2EE7
:10185000FC2E8601C701D8018093D6029093D7024F
:10186000A093D802B093D9023FEF831A930AA30A38
:10187000B30A8092CE029092CF02A092D002B09290
:10188000D102C090D602D090D702E090D802F0905A
:10189000D902C701B6010E949F156093BE027093E2
:1018A000BF028093C0029093C102A701960160E03D
:1018B00074E284E799E40E9426156093AE02709367
:1018C000AF028093B0029093B10220919C0221114B
:1018D0000BC0DC01CB01B0588093AE029093AF02F5
:1018E000A093B002B093B102DF91CF911F910F91FD
:1018F000FF90EF90DF90CF90BF90AF909F908F9030
:101900007F906F905F904F9008954F925F926F928B
:101910007F928F929F92AF92BF92CF92DF92EF927F
:10192000FF926B017C0120E030E0A9010E942115AB
:1019300087FF04C0F7FAF094F7F8F0948090B602AD
:101940009090B702A090B802B090B902A70196019A
:10195000C501B4010E942115882309F456C0609185
:10196000CE027091CF028091D0029091D1020E945C
:10197000D0152B013C01A7019601C501B4010E94BD
:1019800026159B01AC01C301B2010E9485160E947D
:1019900098156093CE027093CF028093D0029093FB
:1019A000D102A701960160E070E080E090E40E941F
:1019B00026150E94F81626E53EE04DE25FE30E9400
:1019C000851620E034E244E759E40E9485166093CE
:1019D000D2027093D3028093D4029093D502C09226
:1019E000B602D092B702E092B802F092B902FF902C
:1019F000EF90DF90CF90BF90AF909F908F907F90AF
:101A00006F905F904F900C94E00AFF90EF90DF9002
:101A1000CF90BF90AF909F908F907F906F905F908E
:101A20004F9008950F931F9320E030E0A90160913B
:101A3000AE027091AF028091B0029091B1020E940B
:101A40002115811118C081E00091AA021091AB020A
:101A50002091AC023091AD024091A6025091A702B4
:101A60006091A8027091A90204171507260737078D
:101A700019F480E001C081E01F910F910895009753
:101A800069F0FC0101900020E9F73197AF01481B94
:101A9000590BBC0185EF91E00C94B40A80E090E012
:101AA00008950F931F93CF93DF938C01C0E0D0E094
:101AB000F801EC0FFD1F6491662341F085EF91E082
:101AC0000E94ED09892B11F02196F2CFCE01DF9112
:101AD000CF911F910F910895CF93DF930E94510DE5
:101AE000EC018FE491E00E943F0D8C0F9D1FDF9170
:101AF000CF9108958F929F92AF92BF920F931F93B1
:101B0000CF93DF93CDB7DEB7A1970FB6F894DEBFC2
:101B10000FBECDBF19A2423008F44AE08E010F5D1E
:101B20001F4F842E912CA12CB12CA50194010E9451
:101B30006117E62FB901CA0101501109EA3014F406
:101B4000E05D01C0E95CD801EC93232B242B252B0D
:101B500061F7C8010E943F0DA1960FB6F894DEBF51
:101B60000FBECDBFDF91CF911F910F91BF90AF906E
:101B70009F908F900895CF92DF92EF92FF92CF9334
:101B8000DF936C01990FEE08FF08F7FE13C06DE2BA
:101B900085EF91E00E94ED09EC0166277727CB01E4
:101BA0006C197D098E099F094AE00E947A0DC80FC1
:101BB000D91F06C04AE0C701B6010E947A0DEC01A8
:101BC0008FE491E00E943F0D8C0F9D1FDF91CF911C
:101BD000FF90EF90DF90CF900895789484B5826065
:101BE00084BD84B5816084BD85B5826085BD85B5C1
:101BF000816085BD80916E00816080936E0010923F
:101C000081008091810082608093810080918100B9
:101C1000816080938100809180008160809380004A
:101C20008091B10084608093B1008091B0008160A8
:101C30008093B00080917A00846080937A008091D4
:101C40007A00826080937A0080917A00816080932C
:101C50007A0080917A00806880937A001092C100A7
:101C6000E0910502F091060282E08083E09101029A
:101C7000F09102021082E0910302F091040280E1EF
:101C8000808310920D02E0910902F0910A02D6E0E1
:101C9000D083E0910702F091080280818061808307
:101CA000E0910702F0910802808188608083E091D2
:101CB0000702F0910802808180688083E09107022A
:101CC000F091080280818F7D80838FE591E00E94F2
:101CD0006C0D84EF91E090937101809370018DE819
:101CE00091E090937301809372018DE09EE0909358
:101CF00075018093740185EF91E090937701809353
:101D0000760186EB90E0909379018093780186E3E9
:101D10009DE090937B0180937A0186EF91E0909310
:101D20007D0180937C0180E190E090937F0180931E
:101D30007E0180E99CE0909381018093800187EF90
:101D400091E090938301809382018AEC9AEF9093C3
:101D50008501809384018AE497E0909387018093C2
:101D6000860188EF91E090938901809388018AE150
:101D70009AEF90938B0180938A018AE996E0909381
:101D80008D0180938C0189EF91E090938F01809376
:101D90008E018AE699EF90939101809390018AEEEB
:101DA00095E090939301809392018AEF91E0909354
:101DB0009501809394018AEB98EF9093970180931B
:101DC00096018AE395E090939901809398018BEFB7
:101DD00091E090939B0180939A018AE098EF909311
:101DE0009D0180939C018AE894E090939F018093E9
:101DF0009E018CEF91E09093A1018093A0018AE570
:101E000097EF9093A3018093A2018AED93E09093C2
:101E1000A5018093A4018DEF91E09093A701809399
:101E2000A6018AEA96EF9093A9018093A8018AE21D
:101E300093E09093AB018093AA018EEF91E0909391
:101E4000AD018093AC018AEF95EF9093AF01809341
:101E5000AE018AE792E09093B1018093B0018FEFD9
:101E600091E09093B3018093B2018AE495EF90934F
:101E7000B5018093B4018AEC91E09093B70180930F
:101E8000B60180E092E09093B9018093B8018AE9AD
:101E900094EF9093BB018093BA018AE191E0909313
:101EA000BD018093BC011092A2021092A302C1E076
:101EB000C093C802D093C90261E086E00E948F03FC
:101EC0006091C8026C278091C9020E940A0320E039
:101ED00030E048EC52E46091B2027091B30280911C
:101EE000B4029091B5020E942115882309F451C0D3
:101EF00080E090E0A8ECB2E48093B2029093B30249
:101F0000A093B402B093B50280E090E4ACE1B6E4F3
:101F10008093DA029093DB02A093DC02B093DD029F
:101F20008091CE029091CF02A091D002B091D102C7
:101F3000181619061A061B0664F56091AE02709118
:101F4000AF028091B0029091B1029B01AC010E945E
:101F500085166B017C016091B6027091B702809189
:101F6000B8029091B9029B01AC010E94B5149B018B
:101F7000AC01C701B6010E9426150E949815609316
:101F8000CE027093CF028093D0029093D1020E9430
:101F9000E00A60E070E080E291E40E94850C20E0BD
:101FA00030E048EC52E46091AE027091AF02809153
:101FB000B0029091B1020E942115882309F465C0F6
:101FC000C090B202D090B302E090B402F090B5029B
:101FD00046015701B7FAB094B7F8B09420E030E06A
:101FE00048EC52E4C501B4010E94801618165CF05A
:101FF00020E030E048EC52E4C701B6010E94211510
:1020000087FD03C014C07501640120E030E0A90120
:10201000C701B6010E94211581110FC01092BE02A6
:102020001092BF021092C0021092C10226C0C12CB1
:10203000D12CD8ECED2ED2E4FD2EA701960160E064
:1020400074E284E799E40E9426159F770E949F1509
:102050006093BE027093BF028093C0029093C1024E
:10206000C1E020E030E0A901C701B6010E9480165E
:1020700018160CF0C0E0C0939C02C092AE02D09241
:10208000AF02E092B002F092B1020E94120D809372
:10209000F3018EE491E00E946C0D62E083E00E9407
:1020A0008F038DED92E0909306018093050180915E
:1020B00069008C6080936900E99A1092F20184E2D1
:1020C00091E00E946C0D8091A6029091A702A091D0
:1020D000A802B091A9029E5CAF4FBF4F4091AA02E7
:1020E0005091AB026091AC027091AD0284179507DC
:1020F000A607B70751F08093AA029093AB02A09372
:10210000AC02B093AD020E94E00AAAE38A2E912CA1
:10211000A12CB12CB0E14B2E512C612C712C212C17
:10212000332433948091F201882309F4A4C01092DF
:10213000F20181E08093F40183EC91E00E946C0D48
:102140008092A6029092A702A092A802B092A90241
:102150008092AA029092AB02A092AC02B092AD0221
:102160001092CE021092CF021092D0021092D102A1
:102170001092BE021092BF021092C0021092C102D1
:102180001092AE021092AF021092B0021092B10201
:1021900082E591E00E943F0D80E190E00E94BB0D3E
:1021A0008AE992E00E94CB038091AA029091AB024F
:1021B000A091AC02B091AD024097A105B10551F0DC
:1021C0004092AA025092AB026092AC027092AD02B1
:1021D0000E94E00A80E991E00E946C0D1092ED01EE
:1021E00082E08093EE0160E00E948F0361E082E074
:1021F0000E940A0385E1E7ECF1E011928A95E9F784
:1022000083E08093C20182E990E09093C1018093C2
:10221000C001E2E5F0E0F093BF01E093BE0143E0CE
:1022200050E06AEA75E08091ED010E948A0580EC39
:102230008093DC011092DD018FEF9FEF9093F0010E
:102240008093EF011092F1018DE190E00E949C07D4
:10225000682F606C8DE190E00E944E076AE087E095
:1022600090E00E944E076DE088E090E00E944E07EB
:1022700080E00E943F078091F401882309F461C245
:102280008091DE018823F1F02FB7F8948091C3018B
:102290009091C401A091C501B091C6012FBF40919A
:1022A000DF015091E0016091E1017091E201841B36
:1022B000950BA60BB70B4597A105B10518F080E06B
:1022C0000E943F078091C901882309F43AC2F8941B
:1022D00088E0E4EDF1E0A2E9B2E001900D928A9588
:1022E000E1F71092C90178943091D401E6EDF1E064
:1022F00090E080E0391721F0219182279F5FFACF8B
:1023000081111FC2E0E0F0E0309719F082E992E01D
:10231000099580919402811117C0909195029111B5
:1023200013C080E090E0892B19F080E00E9400004B
:102330008091DE01882321F081E00E94FE0601C227
:1023400081E00E943F07FDC19091DE01992309F4CD
:1023500081C08057803108F07AC081E00E94FE067B
:1023600048E050E065EE71E082E992E00E94C1171A
:10237000892B61F01092E40188E0E2E9F2E0A5EE39
:10238000B1E001900D928A95E1F7DBC18091E40103
:102390008F5F8093E40180919202833009F042C004
:1023A00080919402982F977010919502953051F476
:1023B0001093E30180E090E0892B09F4C2C10E94F0
:1023C0000000BFC1943089F0C92FD0E0943058F498
:1023D0009091E301992339F0F4E09F9FC00DD11D46
:1023E0001124239704C0219602C0CDE1D0E083FFE1
:1023F0000CC061E0CE010E94F907882309F4A1C155
:10240000612FCE010E944E070AC060E0CE010E94FB
:10241000F907882309F495C1CE010E949C0718137F
:1024200090C1C8CF843009F08CC180919402682F8C
:10243000637070E0762F662790919502692B6F5F2D
:102440007F4F409196028C700E9430087AC180E0E4
:102450000E943F07809194028F3F61F48091950222
:1024600081116FC180E090E0892B09F46AC10E945C
:10247000000067C187FD0AC0009197022091960273
:102480004091950260E070E090E059C1803C08F016
:1024900044C12091DC0127FF54C190919502C92FBE
:1024A000D0E0C095D095C077DD27CC0FDD1FCC0FD5
:1024B000DD1F8F73C82B892F8670E82EF12CF594C1
:1024C000E79480919202853071F49C789C3059F4A5
:1024D0000E94A4078C179D0709F4EFC0CF3FD1409D
:1024E00009F02FC1EAC06E0181E0C81AD108CC0CF6
:1024F000DD1CCC0CDD1CCE28DF2886010F5F1F4FB2
:102500008091F1018823B1F126FF1BC0C801B10100
:102510000E944D17682F81E090E00E944E07C8018D
:1025200017FF02C081509F4F692F89E090E00E9401
:102530004E0780E090E0892BD9F0C8010E9400008E
:1025400017C0BE016F73772781E090E00E944E07AD
:10255000BE0156E0759567955A95E1F789E090E0E0
:102560000E944E07E0E0F0E0309711F0CE010995AF
:102570001092F1018091DC0180FD05C080919202F2
:10258000843099F518C086FF0BC00E94A4078017FD
:102590009107A1F30D3FF7E01F070CF4D2C0EECF77
:1025A0000E94A4078C179D0749F3CF3F21E0D20773
:1025B00009F0C7C0E3CF809195028978813009F096
:1025C000C0C080E090E0892B29F060919602C8019C
:1025D0000E940000E0E0F0E0309709F4B2C04091C2
:1025E00096026E2DC8010995ACC0833039F5409133
:1025F0009502F42FF170CF2E43FBDD24D0F880E05C
:1026000090E0892B31F047702D2DBE01C8010E944A
:1026100000008091DC0186FF06C04D2D6C2DC801A5
:102620000E94FF038EC0E0E0F0E0309709F489C01B
:102630002D2D4C2D6E2DCE01099583C0863009F0CD
:1026400080C080919502982F9978913021F08F78F1
:10265000803809F076C08091DC0186FF24C00E949A
:10266000A40780179107D1F480919602C82FC370F8
:10267000D0E0DC2FCC2790919702C90FD11D219675
:10268000109198028C7090E0959587959595879517
:102690008230910539F10397E9F053C00D3F17409F
:1026A0000CF44FC0E1CF0E94A4078C179D07E1F204
:1026B000CF3FD14009F045C0D7CFC0919502C3703C
:1026C000D0E0DC2FCC2780919602C80FD11D219637
:1026D0001091970261E0CE010E94F907882389F1E9
:1026E000612F17C014FF2DC061E0CE010E94F907D1
:1026F000882339F1CE010E949C07912F977021E029
:1027000030E001C0220F9A95EAF713FF8CC0682FC2
:10271000622BCE010E944E0714C0883E90F490E0D8
:10272000805C9109982F882730919502009198023A
:10273000209197024091960261E070E0832B0E9405
:10274000A1088091BE029091BF02A091C002B091F9
:10275000C102892B8A2B8B2B09F450C00E94CD0417
:102760006B017C018091C2029091C302A091C402CE
:10277000B091C502B701A601481B590B6A0B7B0B30
:102780008091BE029091BF02A091C002B091C1029F
:10279000481759076A077B0788F120919C028091AE
:1027A000A6029091A702A091A802B091A9022223AB
:1027B00021F00196A11DB11D03C00197A109B10926
:1027C0008093A6029093A702A093A802B093A902B7
:1027D0004091A6025091A7026091A8027091A902AF
:1027E0008AE992E00E949802C092C202D092C3028B
:1027F000E092C402F092C5020E94E00A0E94120D0B
:102800009091F301891761F08093F301811108C061
:102810008AE992E00E94AF048BEA91E00E946C0D7D
:102820000E942F017FCC622F6095682372CFE5EF65
:10283000F1E01382128288EE93E0A0E0B0E084839E
:102840009583A683B7838BE091E09183808385ECA9
:1028500090E09587848784EC90E09787868780EC6A
:1028600090E0918B808B81EC90E0938B828B82EC5B
:1028700090E0958B848B86EC90E0978B868B118E05
:10288000128E138E148EEAE9F2E08DE191E09183CD
:10289000808381E083831486158616861786108AC6
:1028A000118A128A138A148A158A168A178A80E076
:1028B00090E0A0E8BFE3808F918FA28FB38F148E3A
:1028C000158E168E178E80A391A3A2A3B3A314A274
:1028D00015A216A217A221E030E035A724A72FEFFA
:1028E00027A710A611A612A613A634E0348325E06C
:1028F00025833683278316A614AA15AA16AA17AA13
:1029000010AE11AE12AE13AE14AE15AE16AE17AEBB
:102910008093DA029093DB02A093DC02B093DD0295
:1029200012821086118612861386CF010E94CB0375
:1029300060E070E080E89FE30C94850CF999FECF8D
:1029400092BD81BDF89A992780B50895262FF999EF
:10295000FECF1FBA92BD81BD20BD0FB6F894FA9A82
:10296000F99A0FBE019608955058BB27AA270E94D6
:10297000CC140C9446160E94381638F00E943F166C
:1029800020F039F49F3F19F426F40C9435160EF418
:10299000E095E7FB0C942F16E92F0E94571658F389
:1029A000BA17620773078407950720F079F4A6F534
:1029B0000C9479160EF4E0950B2EBA2FA02D0B0176
:1029C000B90190010C01CA01A0011124FF27591B74
:1029D00099F0593F50F4503E68F11A16F040A22F7A
:1029E000232F342F4427585FF3CF469537952795EB
:1029F000A795F0405395C9F77EF41F16BA0B620BEA
:102A0000730B840BBAF09150A1F0FF0FBB1F661F30
:102A1000771F881FC2F70EC0BA0F621F731F841F73
:102A200048F4879577956795B795F7959E3F08F099
:102A3000B0CF9395880F08F09927EE0F979587955B
:102A400008950E940B1608F481E008950E943A153B
:102A50000C9446160E943F1658F00E94381640F01B
:102A600029F45F3F29F00C942F1651110C947A161B
:102A70000C9435160E94571668F39923B1F3552329
:102A800091F3951B550BBB27AA2762177307840781
:102A900038F09F5F5F4F220F331F441FAA1FA9F317
:102AA00035D00E2E3AF0E0E832D091505040E69505
:102AB000001CCAF72BD0FE2F29D0660F771F881F66
:102AC000BB1F261737074807AB07B0E809F0BB0B59
:102AD000802DBF01FF2793585F4F3AF09E3F51056D
:102AE00078F00C942F160C947A165F3FE4F3983E1E
:102AF000D4F3869577956795B795F7959F5FC9F756
:102B0000880F911D9695879597F90895E1E0660FD6
:102B1000771F881FBB1F621773078407BA0720F04F
:102B2000621B730B840BBA0BEE1F88F7E0950895B8
:102B30000E949F156894B1110C947A1608950E9412
:102B40005F1688F09F5798F0B92F9927B751B0F0CA
:102B5000E1F0660F771F881F991F1AF0BA95C9F721
:102B600014C0B13091F00E947916B1E008950C9430
:102B70007916672F782F8827B85F39F0B93FCCF3E3
:102B8000869577956795B395D9F73EF4909580959E
:102B9000709561957F4F8F4F9F4F0895E89409C0BE
:102BA00097FB3EF490958095709561957F4F8F4F80
:102BB0009F4F9923A9F0F92F96E9BB279395F69596
:102BC000879577956795B795F111F8CFFAF4BB0F14
:102BD00011F460FF1BC06F5F7F4F8F4F9F4F16C078
:102BE000882311F096E911C0772321F09EE8872F02
:102BF000762F05C0662371F096E8862F70E060E0BE
:102C00002AF09A95660F771F881FDAF7880F969536
:102C1000879597F90895990F0008550FAA0BE0E8DA
:102C2000FEEF16161706E807F907C0F0121613068E
:102C3000E407F50798F0621B730B840B950B39F4CE
:102C40000A2661F0232B242B252B21F408950A2634
:102C500009F4A140A6958FEF811D811D089597F974
:102C60009F6780E870E060E008959FEF80EC089532
:102C700000240A941616170618060906089500245B
:102C80000A9412161306140605060895092E0394D5
:102C9000000C11F4882352F0BB0F40F4BF2B11F449
:102CA00060FF04C06F5F7F4F8F4F9F4F089557FDA8
:102CB0009058440F551F59F05F3F71F04795880FAA
:102CC00097FB991F61F09F3F79F087950895121641
:102CD00013061406551FF2CF4695F1DF08C01616ED
:102CE00017061806991FF1CF86957105610508949E
:102CF0000895E894BB2766277727CB0197F90895B5
:102D00000E940B1608F48FEF08950E9498160C94F9
:102D100046160E94381638F00E943F1620F0952380
:102D200011F00C942F160C94351611240C947A166D
:102D30000E94571670F3959FC1F3950F50E0551FF1
:102D4000629FF001729FBB27F00DB11D639FAA2700
:102D5000F00DB11DAA1F649F6627B00DA11D661F4F
:102D6000829F2227B00DA11D621F739FB00DA11D70
:102D7000621F839FA00D611D221F749F3327A00D2A
:102D8000611D231F849F600D211D822F762F6A2FC6
:102D900011249F5750409AF0F1F088234AF0EE0F2B
:102DA000FF1FBB1F661F771F881F91505040A9F758
:102DB0009E3F510580F00C942F160C947A165F3FBD
:102DC000E4F3983ED4F3869577956795B795F79594
:102DD000E7959F5FC1F7FE2B880F911D969587950C
:102DE00097F9089519F416F40C9435160C943817C5
:102DF0000E945F16B8F39923C9F3B6F39F57550B9A
:102E000087FF0E9446170024A0E640EA9001805800
:102E10005695979528F4805C660F771F881F20F0E1
:102E200026173707480730F4621B730B840B2029E1
:102E300031294A2BA69517940794202531254A2736
:102E400058F7660F771F881F20F0261737074807A7
:102E500030F4620B730B840B200D311D411DA095C6
:102E600081F7B901842F9158880F96958795089519
:102E70009F3F31F0915020F4879577956795B795EE
:102E8000880F911D9695879597F908959150504018
:102E9000660F771F881FD2F7089597FB072E16F449
:102EA000009407D077FD09D00E94A81707FC05D031
:102EB0003EF4909581959F4F0895709561957F4F51
:102EC0000895A1E21A2EAA1BBB1BFD010DC0AA1F6B
:102ED000BB1FEE1FFF1FA217B307E407F50720F083
:102EE000A21BB30BE40BF50B661F771F881F991FFE
:102EF0001A9469F760957095809590959B01AC0147
:102F0000BD01CF010895052E97FB1EF400940E9489
:102F10009A1757FD07D00E94611707FC03D04EF4A3
:102F20000C949A1750954095309521953F4F4F4FEF
:102F30005F4F089590958095709561957F4F8F4F65
:102F40009F4F0895EE0FFF1F0590F491E02D099417
:102F5000AA1BBB1B51E107C0AA1FBB1FA617B707BF
:102F600010F0A61BB70B881F991F5A95A9F78095DB
:102F70009095BC01CD01089581E090E0F8940C9407
:102F8000CE17FB01DC0104C08D910190801921F462
:102F900041505040C8F7881B990B0895F894FFCF13
:102FA000FFFFFF3901390100000000ED09B40AB24A
:102FB000093A0A2301C109D50900000000AF04CB7A
:102FC000035703980282024A022902F501D4017EC6
:102FD000013A016E6F7469667944636341636354B7
:102FE00075726E6F75744F75747075743A20000D3C
:102FF0000A004D6F76696E6720746F20706F736979
:0630000074696F6E2000F0
:107800000C94343C0C94513C0C94513C0C94513CE1
:107810000C94513C0C94513C0C94513C0C94513CB4
:107820000C94513C0C94513C0C94513C0C94513CA4
:107830000C94513C0C94513C0C94513C0C94513C94
:107840000C94513C0C94513C0C94513C0C94513C84
:107850000C94513C0C94513C0C94513C0C94513C74
:107860000C94513C0C94513C11241FBECFEFD8E036
:10787000DEBFCDBF11E0A0E0B1E0ECE9FFE702C060
:1078800005900D92A230B107D9F712E0A2E0B1E065
:1078900001C01D92AD30B107E1F70E942D3D0C945F
:1078A000CC3F0C94003C982F959595959595959582
:1078B000905D8F708A307CF0282F295A8091C0000B
:1078C00085FFFCCF9093C6008091C00085FFFCCF60
:1078D0002093C6000895282F205DF0CF982F809127
:1078E000C00085FFFCCF9093C6000895EF92FF92F1
:1078F0000F931F93EE24FF2487018091C00087FD22
:1079000017C00894E11CF11C011D111D81E4E8164B
:1079100082E4F8068FE0080780E0180770F3E09132
:107920000401F091050109958091C00087FFE9CF1E
:107930008091C6001F910F91FF90EF9008950E94D3
:10794000763C982F8091C00085FFFCCF9093C600B5
:1079500091362CF490330CF09053892F089597555D
:10796000892F08951F930E949F3C182F0E949F3CCF
:107970001295107F810F1F9108951F93182F882350
:1079800021F00E94763C1150E1F71F9108951F935A
:10799000182F0E94763C803249F0809103018F5F5E
:1079A000809303018530C1F01F9108958091C0003C
:1079B00085FFFCCF84E18093C6008091C00085FFE5
:1079C000FCCF1093C6008091C00085FFFCCF80E102
:1079D0008093C6001F910895E0910401F091050184
:1079E00009951F9108950E94763C803241F0809164
:1079F00003018F5F80930301853081F008958091AA
:107A0000C00085FFFCCF84E18093C6008091C00058
:107A100085FFFCCF80E18093C6000895E0910401CA
:107A2000F09105010995089540E951E08823A1F0FE
:107A30002D9A28EE33E0FA013197F1F721503040CA
:107A4000D1F72D9828EE33E0FA013197F1F7215064
:107A50003040D1F7815061F708953F924F925F9285
:107A60006F927F928F929F92AF92BF92CF92DF924E
:107A7000EF92FF920F931F93CF93DF93000080E16B
:107A80008093C4001092C50088E18093C10086E015
:107A90008093C2005098589A259A81E00E94143D24
:107AA00024E1F22E9EE1E92E85E9D82E0FE0C02ECA
:107AB00010E1B12EAA24A394B1E49B2EA6E58A2E50
:107AC000F2E57F2EE0E26E2E79E4572E63E5462E36
:107AD00050E5352E0E94763C8033B1F18133B9F107
:107AE000803409F46FC0813409F476C0823409F41B
:107AF00085C0853409F488C0803531F1823521F1A3
:107B0000813511F1853509F485C0863509F48DC0BC
:107B1000843609F496C0843709F403C1853709F423
:107B200072C1863709F466C0809103018F5F80932C
:107B30000301853079F6E0910401F0910501099582
:107B40000E94763C803351F60E94F33CC3CF0E94E2
:107B5000763C803249F78091C00085FFFCCFF092DF
:107B6000C6008091C00085FFFCCF9092C600809136
:107B7000C00085FFFCCF8092C6008091C00085FFC9
:107B8000FCCF7092C6008091C00085FFFCCF609250
:107B9000C6008091C00085FFFCCF5092C600809146
:107BA000C00085FFFCCF4092C6008091C00085FFD9
:107BB000FCCF3092C6008091C00085FFFCCFB09210
:107BC000C60088CF0E94763C863808F4BDCF0E945C
:107BD000763C0E94F33C7ECF0E94763C803809F4CC
:107BE0009CC0813809F40BC1823809F43CC1883942
:107BF00009F48FC080E00E94C73C6CCF84E10E94F2
:107C0000BD3C0E94F33C66CF85E00E94BD3C0E94D3
:107C1000F33C60CF0E94763C809306010E94763C44
:107C2000809307010E94F33C55CF0E94763C80333D
:107C300009F41DC183E00E94BD3C80E00E94C73C66
:107C400049CF0E94763C809309020E94763C809343
:107C5000080280910C028E7F80930C020E94763C79
:107C6000853409F415C18091080290910902892B8D
:107C700089F000E010E00E94763CF801E85FFE4FDA
:107C800080830F5F1F4F80910802909109020817AF
:107C9000190788F30E94763C803209F045CF809125
:107CA0000C0280FF01C16091060170910701660F0F
:107CB000771F7093070160930601A0910802B091AD
:107CC00009021097C9F0E8E0F1E09B01AD014E0F09
:107CD0005F1FF999FECF32BD21BD819180BDFA9A17
:107CE000F99A2F5F3F4FE417F50799F76A0F7B1F4B
:107CF00070930701609306018091C00085FFFCCF5F
:107D0000F092C6008091C00085FFFCCFB092C60003
:107D1000E1CE83E00E94C73CDDCE82E00E94C73CFA
:107D2000D9CE0E94763C809309020E94763C8093D3
:107D300008028091060190910701880F991F909386
:107D40000701809306010E94763C853409F4A6C0A1
:107D500080910C028E7F80930C020E94763C8032D0
:107D600009F0B8CE8091C00085FFFCCFF092C6002C
:107D7000609108027091090261157105B9F140E046
:107D800050E080910C02A82FA170B82FB27011C0E2
:107D9000BB2309F45CC0E0910601F0910701319624
:107DA000F0930701E09306014F5F5F4F46175707B7
:107DB000E8F4AA2369F3F999FECF209106013091E6
:107DC000070132BD21BDF89A90B58091C00085FFB2
:107DD000FCCF9093C6002F5F3F4F30930701209355
:107DE00006014F5F5F4F4617570718F38091C00099
:107DF00085FDE5CE8091C00085FFF8CFE0CE81E023
:107E00000E94C73C67CE0E94763C803209F08CCE3F
:107E10008091C00085FFFCCFF092C6008091C00029
:107E200085FFFCCFE092C6008091C00085FFFCCFAB
:107E3000D092C6008091C00085FFFCCFC092C600E2
:107E40008091C00085FFFCCFB092C60043CEE09188
:107E50000601F091070194918091C00085FFFCCF4D
:107E60009093C6009CCF80E10E94C73C33CE0E9415
:107E7000763C0E94763C182F0E94763C112309F430
:107E800083C0113009F484C08FE00E94C73C22CE29
:107E900080910C02816080930C02E5CE80910C02EF
:107EA000816080930C0259CF809107018823880F4D
:107EB000880B8A2180930B02809106019091070123
:107EC000880F991F90930701809306018091080203
:107ED00080FF09C080910802909109020196909359
:107EE000090280930802F894F999FECF1127E091D6
:107EF0000601F0910701C8E0D1E08091080290915D
:107F00000902103091F40091570001700130D9F34B
:107F100003E000935700E89500915700017001308D
:107F2000D9F301E100935700E89509901990009169
:107F3000570001700130D9F301E000935700E89534
:107F40001395103498F011270091570001700130FB
:107F5000D9F305E000935700E895009157000170B0
:107F60000130D9F301E100935700E895329602976A
:107F700009F0C7CF103011F00296E5CF112480919F
:107F8000C00085FFB9CEBCCE8EE10E94C73CA2CD19
:0C7F900085E90E94C73C9ECDF894FFCF0D
:027F9C00800063
:040000030000780081
:00000001FF